{
  "_format": "hh-sol-artifact-1",
  "contractName": "CauseKoin",
  "sourceName": "contracts/causeKoin.sol",
  "abi": [
    {
      "inputs": [],
      "stateMutability": "nonpayable",
      "type": "constructor"
    },
    {
      "inputs": [
        {
          "internalType": "address",
          "name": "spender",
          "type": "address"
        },
        {
          "internalType": "uint256",
          "name": "allowance",
          "type": "uint256"
        },
        {
          "internalType": "uint256",
          "name": "needed",
          "type": "uint256"
        }
      ],
      "name": "ERC20InsufficientAllowance",
      "type": "error"
    },
    {
      "inputs": [
        {
          "internalType": "address",
          "name": "sender",
          "type": "address"
        },
        {
          "internalType": "uint256",
          "name": "balance",
          "type": "uint256"
        },
        {
          "internalType": "uint256",
          "name": "needed",
          "type": "uint256"
        }
      ],
      "name": "ERC20InsufficientBalance",
      "type": "error"
    },
    {
      "inputs": [
        {
          "internalType": "address",
          "name": "approver",
          "type": "address"
        }
      ],
      "name": "ERC20InvalidApprover",
      "type": "error"
    },
    {
      "inputs": [
        {
          "internalType": "address",
          "name": "receiver",
          "type": "address"
        }
      ],
      "name": "ERC20InvalidReceiver",
      "type": "error"
    },
    {
      "inputs": [
        {
          "internalType": "address",
          "name": "sender",
          "type": "address"
        }
      ],
      "name": "ERC20InvalidSender",
      "type": "error"
    },
    {
      "inputs": [
        {
          "internalType": "address",
          "name": "spender",
          "type": "address"
        }
      ],
      "name": "ERC20InvalidSpender",
      "type": "error"
    },
    {
      "anonymous": false,
      "inputs": [
        {
          "indexed": true,
          "internalType": "address",
          "name": "owner",
          "type": "address"
        },
        {
          "indexed": true,
          "internalType": "address",
          "name": "spender",
          "type": "address"
        },
        {
          "indexed": false,
          "internalType": "uint256",
          "name": "value",
          "type": "uint256"
        }
      ],
      "name": "Approval",
      "type": "event"
    },
    {
      "anonymous": false,
      "inputs": [
        {
          "indexed": true,
          "internalType": "address",
          "name": "from",
          "type": "address"
        },
        {
          "indexed": true,
          "internalType": "address",
          "name": "to",
          "type": "address"
        },
        {
          "indexed": false,
          "internalType": "uint256",
          "name": "value",
          "type": "uint256"
        }
      ],
      "name": "Transfer",
      "type": "event"
    },
    {
      "inputs": [
        {
          "internalType": "address",
          "name": "owner",
          "type": "address"
        },
        {
          "internalType": "address",
          "name": "spender",
          "type": "address"
        }
      ],
      "name": "allowance",
      "outputs": [
        {
          "internalType": "uint256",
          "name": "",
          "type": "uint256"
        }
      ],
      "stateMutability": "view",
      "type": "function"
    },
    {
      "inputs": [
        {
          "internalType": "address",
          "name": "spender",
          "type": "address"
        },
        {
          "internalType": "uint256",
          "name": "value",
          "type": "uint256"
        }
      ],
      "name": "approve",
      "outputs": [
        {
          "internalType": "bool",
          "name": "",
          "type": "bool"
        }
      ],
      "stateMutability": "nonpayable",
      "type": "function"
    },
    {
      "inputs": [
        {
          "internalType": "address",
          "name": "account",
          "type": "address"
        }
      ],
      "name": "balanceOf",
      "outputs": [
        {
          "internalType": "uint256",
          "name": "",
          "type": "uint256"
        }
      ],
      "stateMutability": "view",
      "type": "function"
    },
    {
      "inputs": [],
      "name": "decimals",
      "outputs": [
        {
          "internalType": "uint8",
          "name": "",
          "type": "uint8"
        }
      ],
      "stateMutability": "view",
      "type": "function"
    },
    {
      "inputs": [
        {
          "internalType": "uint256",
          "name": "_amount",
          "type": "uint256"
        }
      ],
      "name": "mint",
      "outputs": [],
      "stateMutability": "nonpayable",
      "type": "function"
    },
    {
      "inputs": [],
      "name": "name",
      "outputs": [
        {
          "internalType": "string",
          "name": "",
          "type": "string"
        }
      ],
      "stateMutability": "view",
      "type": "function"
    },
    {
      "inputs": [],
      "name": "owner",
      "outputs": [
        {
          "internalType": "address",
          "name": "",
          "type": "address"
        }
      ],
      "stateMutability": "view",
      "type": "function"
    },
    {
      "inputs": [],
      "name": "symbol",
      "outputs": [
        {
          "internalType": "string",
          "name": "",
          "type": "string"
        }
      ],
      "stateMutability": "view",
      "type": "function"
    },
    {
      "inputs": [],
      "name": "totalSupply",
      "outputs": [
        {
          "internalType": "uint256",
          "name": "",
          "type": "uint256"
        }
      ],
      "stateMutability": "view",
      "type": "function"
    },
    {
      "inputs": [
        {
          "internalType": "address",
          "name": "to",
          "type": "address"
        },
        {
          "internalType": "uint256",
          "name": "value",
          "type": "uint256"
        }
      ],
      "name": "transfer",
      "outputs": [
        {
          "internalType": "bool",
          "name": "",
          "type": "bool"
        }
      ],
      "stateMutability": "nonpayable",
      "type": "function"
    },
    {
      "inputs": [
        {
          "internalType": "address",
          "name": "from",
          "type": "address"
        },
        {
          "internalType": "address",
          "name": "to",
          "type": "address"
        },
        {
          "internalType": "uint256",
          "name": "value",
          "type": "uint256"
        }
      ],
      "name": "transferFrom",
      "outputs": [
        {
          "internalType": "bool",
          "name": "",
          "type": "bool"
        }
      ],
      "stateMutability": "nonpayable",
      "type": "function"
    }
  ],
  "bytecode": "0x608060405234801561001057600080fd5b506040518060400160405280600981526020017f63617573654b6f696e00000000000000000000000000000000000000000000008152506040518060400160405280600281526020017f434b000000000000000000000000000000000000000000000000000000000000815250816003908161008c91906105fc565b50806004908161009c91906105fc565b50505033600560006101000a81548173ffffffffffffffffffffffffffffffffffffffff021916908373ffffffffffffffffffffffffffffffffffffffff1602179055506100fa3369152d02c7e14af68000006100ff60201b60201c565b6107ee565b600073ffffffffffffffffffffffffffffffffffffffff168273ffffffffffffffffffffffffffffffffffffffff16036101715760006040517fec442f05000000000000000000000000000000000000000000000000000000008152600401610168919061070f565b60405180910390fd5b6101836000838361018760201b60201c565b5050565b600073ffffffffffffffffffffffffffffffffffffffff168373ffffffffffffffffffffffffffffffffffffffff16036101d95780600260008282546101cd9190610759565b925050819055506102ac565b60008060008573ffffffffffffffffffffffffffffffffffffffff1673ffffffffffffffffffffffffffffffffffffffff16815260200190815260200160002054905081811015610265578381836040517fe450d38c00000000000000000000000000000000000000000000000000000000815260040161025c9392919061079c565b60405180910390fd5b8181036000808673ffffffffffffffffffffffffffffffffffffffff1673ffffffffffffffffffffffffffffffffffffffff16815260200190815260200160002081905550505b600073ffffffffffffffffffffffffffffffffffffffff168273ffffffffffffffffffffffffffffffffffffffff16036102f55780600260008282540392505081905550610342565b806000808473ffffffffffffffffffffffffffffffffffffffff1673ffffffffffffffffffffffffffffffffffffffff168152602001908152602001600020600082825401925050819055505b8173ffffffffffffffffffffffffffffffffffffffff168373ffffffffffffffffffffffffffffffffffffffff167fddf252ad1be2c89b69c2b068fc378daa952ba7f163c4a11628f55a4df523b3ef8360405161039f91906107d3565b60405180910390a3505050565b600081519050919050565b7f4e487b7100000000000000000000000000000000000000000000000000000000600052604160045260246000fd5b7f4e487b7100000000000000000000000000000000000000000000000000000000600052602260045260246000fd5b6000600282049050600182168061042d57607f821691505b6020821081036104405761043f6103e6565b5b50919050565b60008190508160005260206000209050919050565b60006020601f8301049050919050565b600082821b905092915050565b6000600883026104a87fffffffffffffffffffffffffffffffffffffffffffffffffffffffffffffffff8261046b565b6104b2868361046b565b95508019841693508086168417925050509392505050565b6000819050919050565b6000819050919050565b60006104f96104f46104ef846104ca565b6104d4565b6104ca565b9050919050565b6000819050919050565b610513836104de565b61052761051f82610500565b848454610478565b825550505050565b600090565b61053c61052f565b61054781848461050a565b505050565b5b8181101561056b57610560600082610534565b60018101905061054d565b5050565b601f8211156105b05761058181610446565b61058a8461045b565b81016020851015610599578190505b6105ad6105a58561045b565b83018261054c565b50505b505050565b600082821c905092915050565b60006105d3600019846008026105b5565b1980831691505092915050565b60006105ec83836105c2565b9150826002028217905092915050565b610605826103ac565b67ffffffffffffffff81111561061e5761061d6103b7565b5b6106288254610415565b61063382828561056f565b600060209050601f8311600181146106665760008415610654578287015190505b61065e85826105e0565b8655506106c6565b601f19841661067486610446565b60005b8281101561069c57848901518255600182019150602085019450602081019050610677565b868310156106b957848901516106b5601f8916826105c2565b8355505b6001600288020188555050505b505050505050565b600073ffffffffffffffffffffffffffffffffffffffff82169050919050565b60006106f9826106ce565b9050919050565b610709816106ee565b82525050565b60006020820190506107246000830184610700565b92915050565b7f4e487b7100000000000000000000000000000000000000000000000000000000600052601160045260246000fd5b6000610764826104ca565b915061076f836104ca565b92508282019050808211156107875761078661072a565b5b92915050565b610796816104ca565b82525050565b60006060820190506107b16000830186610700565b6107be602083018561078d565b6107cb604083018461078d565b949350505050565b60006020820190506107e8600083018461078d565b92915050565b611261806107fd6000396000f3fe608060405234801561001057600080fd5b50600436106100a95760003560e01c806370a082311161007157806370a08231146101685780638da5cb5b1461019857806395d89b41146101b6578063a0712d68146101d4578063a9059cbb146101f0578063dd62ed3e14610220576100a9565b806306fdde03146100ae578063095ea7b3146100cc57806318160ddd146100fc57806323b872dd1461011a578063313ce5671461014a575b600080fd5b6100b6610250565b6040516100c39190610c5c565b60405180910390f35b6100e660048036038101906100e19190610d17565b6102e2565b6040516100f39190610d72565b60405180910390f35b610104610305565b6040516101119190610d9c565b60405180910390f35b610134600480360381019061012f9190610db7565b61030f565b6040516101419190610d72565b60405180910390f35b61015261033e565b60405161015f9190610e26565b60405180910390f35b610182600480360381019061017d9190610e41565b610347565b60405161018f9190610d9c565b60405180910390f35b6101a061038f565b6040516101ad9190610e7d565b60405180910390f35b6101be6103b5565b6040516101cb9190610c5c565b60405180910390f35b6101ee60048036038101906101e99190610e98565b610447565b005b61020a60048036038101906102059190610d17565b610502565b6040516102179190610d72565b60405180910390f35b61023a60048036038101906102359190610ec5565b610525565b6040516102479190610d9c565b60405180910390f35b60606003805461025f90610f34565b80601f016020809104026020016040519081016040528092919081815260200182805461028b90610f34565b80156102d85780601f106102ad576101008083540402835291602001916102d8565b820191906000526020600020905b8154815290600101906020018083116102bb57829003601f168201915b5050505050905090565b6000806102ed6105ac565b90506102fa8185856105b4565b600191505092915050565b6000600254905090565b60008061031a6105ac565b90506103278582856105c6565b61033285858561065a565b60019150509392505050565b60006012905090565b60008060008373ffffffffffffffffffffffffffffffffffffffff1673ffffffffffffffffffffffffffffffffffffffff168152602001908152602001600020549050919050565b600560009054906101000a900473ffffffffffffffffffffffffffffffffffffffff1681565b6060600480546103c490610f34565b80601f01602080910402602001604051908101604052809291908181526020018280546103f090610f34565b801561043d5780601f106104125761010080835404028352916020019161043d565b820191906000526020600020905b81548152906001019060200180831161042057829003601f168201915b5050505050905090565b600560009054906101000a900473ffffffffffffffffffffffffffffffffffffffff1673ffffffffffffffffffffffffffffffffffffffff163373ffffffffffffffffffffffffffffffffffffffff16146104d7576040517f08c379a00000000000000000000000000000000000000000000000000000000081526004016104ce90610fb1565b60405180910390fd5b6104ff336104e361033e565b600a6104ef9190611133565b836104fa919061117e565b61074e565b50565b60008061050d6105ac565b905061051a81858561065a565b600191505092915050565b6000600160008473ffffffffffffffffffffffffffffffffffffffff1673ffffffffffffffffffffffffffffffffffffffff16815260200190815260200160002060008373ffffffffffffffffffffffffffffffffffffffff1673ffffffffffffffffffffffffffffffffffffffff16815260200190815260200160002054905092915050565b600033905090565b6105c183838360016107d0565b505050565b60006105d28484610525565b90507fffffffffffffffffffffffffffffffffffffffffffffffffffffffffffffffff81146106545781811015610644578281836040517ffb8f41b200000000000000000000000000000000000000000000000000000000815260040161063b939291906111c0565b60405180910390fd5b610653848484840360006107d0565b5b50505050565b600073ffffffffffffffffffffffffffffffffffffffff168373ffffffffffffffffffffffffffffffffffffffff16036106cc5760006040517f96c6fd1e0000000000000000000000000000000000000000000000000000000081526004016106c39190610e7d565b60405180910390fd5b600073ffffffffffffffffffffffffffffffffffffffff168273ffffffffffffffffffffffffffffffffffffffff160361073e5760006040517fec442f050000000000000000000000000000000000000000000000000000000081526004016107359190610e7d565b60405180910390fd5b6107498383836109a7565b505050565b600073ffffffffffffffffffffffffffffffffffffffff168273ffffffffffffffffffffffffffffffffffffffff16036107c05760006040517fec442f050000000000000000000000000000000000000000000000000000000081526004016107b79190610e7d565b60405180910390fd5b6107cc600083836109a7565b5050565b600073ffffffffffffffffffffffffffffffffffffffff168473ffffffffffffffffffffffffffffffffffffffff16036108425760006040517fe602df050000000000000000000000000000000000000000000000000000000081526004016108399190610e7d565b60405180910390fd5b600073ffffffffffffffffffffffffffffffffffffffff168373ffffffffffffffffffffffffffffffffffffffff16036108b45760006040517f94280d620000000000000000000000000000000000000000000000000000000081526004016108ab9190610e7d565b60405180910390fd5b81600160008673ffffffffffffffffffffffffffffffffffffffff1673ffffffffffffffffffffffffffffffffffffffff16815260200190815260200160002060008573ffffffffffffffffffffffffffffffffffffffff1673ffffffffffffffffffffffffffffffffffffffff1681526020019081526020016000208190555080156109a1578273ffffffffffffffffffffffffffffffffffffffff168473ffffffffffffffffffffffffffffffffffffffff167f8c5be1e5ebec7d5bd14f71427d1e84f3dd0314c0f7b2291e5b200ac8c7c3b925846040516109989190610d9c565b60405180910390a35b50505050565b600073ffffffffffffffffffffffffffffffffffffffff168373ffffffffffffffffffffffffffffffffffffffff16036109f95780600260008282546109ed91906111f7565b92505081905550610acc565b60008060008573ffffffffffffffffffffffffffffffffffffffff1673ffffffffffffffffffffffffffffffffffffffff16815260200190815260200160002054905081811015610a85578381836040517fe450d38c000000000000000000000000000000000000000000000000000000008152600401610a7c939291906111c0565b60405180910390fd5b8181036000808673ffffffffffffffffffffffffffffffffffffffff1673ffffffffffffffffffffffffffffffffffffffff16815260200190815260200160002081905550505b600073ffffffffffffffffffffffffffffffffffffffff168273ffffffffffffffffffffffffffffffffffffffff1603610b155780600260008282540392505081905550610b62565b806000808473ffffffffffffffffffffffffffffffffffffffff1673ffffffffffffffffffffffffffffffffffffffff168152602001908152602001600020600082825401925050819055505b8173ffffffffffffffffffffffffffffffffffffffff168373ffffffffffffffffffffffffffffffffffffffff167fddf252ad1be2c89b69c2b068fc378daa952ba7f163c4a11628f55a4df523b3ef83604051610bbf9190610d9c565b60405180910390a3505050565b600081519050919050565b600082825260208201905092915050565b60005b83811015610c06578082015181840152602081019050610beb565b60008484015250505050565b6000601f19601f8301169050919050565b6000610c2e82610bcc565b610c388185610bd7565b9350610c48818560208601610be8565b610c5181610c12565b840191505092915050565b60006020820190508181036000830152610c768184610c23565b905092915050565b600080fd5b600073ffffffffffffffffffffffffffffffffffffffff82169050919050565b6000610cae82610c83565b9050919050565b610cbe81610ca3565b8114610cc957600080fd5b50565b600081359050610cdb81610cb5565b92915050565b6000819050919050565b610cf481610ce1565b8114610cff57600080fd5b50565b600081359050610d1181610ceb565b92915050565b60008060408385031215610d2e57610d2d610c7e565b5b6000610d3c85828601610ccc565b9250506020610d4d85828601610d02565b9150509250929050565b60008115159050919050565b610d6c81610d57565b82525050565b6000602082019050610d876000830184610d63565b92915050565b610d9681610ce1565b82525050565b6000602082019050610db16000830184610d8d565b92915050565b600080600060608486031215610dd057610dcf610c7e565b5b6000610dde86828701610ccc565b9350506020610def86828701610ccc565b9250506040610e0086828701610d02565b9150509250925092565b600060ff82169050919050565b610e2081610e0a565b82525050565b6000602082019050610e3b6000830184610e17565b92915050565b600060208284031215610e5757610e56610c7e565b5b6000610e6584828501610ccc565b91505092915050565b610e7781610ca3565b82525050565b6000602082019050610e926000830184610e6e565b92915050565b600060208284031215610eae57610ead610c7e565b5b6000610ebc84828501610d02565b91505092915050565b60008060408385031215610edc57610edb610c7e565b5b6000610eea85828601610ccc565b9250506020610efb85828601610ccc565b9150509250929050565b7f4e487b7100000000000000000000000000000000000000000000000000000000600052602260045260246000fd5b60006002820490506001821680610f4c57607f821691505b602082108103610f5f57610f5e610f05565b5b50919050565b7f596f7520617265206e6f7420746865206f776e65720000000000000000000000600082015250565b6000610f9b601583610bd7565b9150610fa682610f65565b602082019050919050565b60006020820190508181036000830152610fca81610f8e565b9050919050565b7f4e487b7100000000000000000000000000000000000000000000000000000000600052601160045260246000fd5b60008160011c9050919050565b6000808291508390505b60018511156110575780860481111561103357611032610fd1565b5b60018516156110425780820291505b808102905061105085611000565b9450611017565b94509492505050565b600082611070576001905061112c565b8161107e576000905061112c565b8160018114611094576002811461109e576110cd565b600191505061112c565b60ff8411156110b0576110af610fd1565b5b8360020a9150848211156110c7576110c6610fd1565b5b5061112c565b5060208310610133831016604e8410600b84101617156111025782820a9050838111156110fd576110fc610fd1565b5b61112c565b61110f848484600161100d565b9250905081840481111561112657611125610fd1565b5b81810290505b9392505050565b600061113e82610ce1565b915061114983610e0a565b92506111767fffffffffffffffffffffffffffffffffffffffffffffffffffffffffffffffff8484611060565b905092915050565b600061118982610ce1565b915061119483610ce1565b92508282026111a281610ce1565b915082820484148315176111b9576111b8610fd1565b5b5092915050565b60006060820190506111d56000830186610e6e565b6111e26020830185610d8d565b6111ef6040830184610d8d565b949350505050565b600061120282610ce1565b915061120d83610ce1565b925082820190508082111561122557611224610fd1565b5b9291505056fea2646970667358221220343e81a11fc58be5286f7926c55dfb8a9a80e8a63db0ce10888db4cd6f12a45e64736f6c634300081b0033",
  "linkReferences": {},
  "deployedLinkReferences": {}
}